:100000000C94C1000C9473020C94DE000C94DE007E
:100010000C94DE000C94DE000C94DE000C94DE00E8
:100020000C94DE000C94DE000C94DE000C949E0B0D
:100030000C94DE000C94DE000C94DE000C94DE00C8
:100040000C94DE000C94DE000C94DE000C94DE00B8
:100050000C94DE00030A0B0A210AC20AC20AF20942
:10006000C20AC20AC20AC20AC20AC20AC20AC20A30
:10007000C20A890A8E0A930A980A9A0A9C0AA20A54
:10008000B40AAA0AB40AAA0AAA0AAA0AB90AC20A95
:10009000C20A530A580A5D0A620A640A660A6C0AAE
:1000A000740A460A790A7E0A810A860AC50AC20AC1
:1000B000C20A320A370A3C0A620A640A660A6C0AF1
:1000C000410A460A4E0A7E0A810A860A1203610024
:1000D0007600720064006F00700065007200140307
:1000E0004100560052002D0044006F007000650072
:1000F000720012036F0062006400650076002E003B
:1001000061007400040309040853544B3530305F18
:1001100032000600FF0901A101150026FF00750845
:100120008501950E0900B202018502951E0900B2F3
:1001300002018503953E0900B202018504957E09FE
:1001400000B202018505953E0900B20201C0090214
:100150002200010100806409040000010300000086
:10016000092101010001223C000705810308000A62
:100170001201010100000008C016DF05050101029F
:10018000000111241FBECFE5D8E0DEBFCDBF10E0D7
:10019000A0E6B0E0E8E1FCE102C005900D92A438D1
:1001A000B107D9F713E0A4E8B0E001C01D92A7326F
:1001B000B107E1F70E949C0D0C940A0E0C9400000C
:1001C0001F93CF93DF93162FEA01288124FF05C0E8
:1001D000298138E82327298302C02AE528839E0144
:1001E0002E5F3F4FD901FC01810F91919D93982F74
:1001F0009E1B1916D4F3612FC9010E946F021C5F68
:100200001883DF91CF911F91089548ED52E00C942F
:10021000E00043E053E00C94E000CF93DF93609163
:10022000E902635067FDBCC08091E602CCE0D0E0FB
:10023000C81BD109C351DD4F8091E502803120F404
:10024000CE010E949B0DAAC08D3209F097C0683084
:1002500009F0A4C083EC8093CD028AE5809361000D
:10026000109284008881807621F0CE010E94130DC7
:1002700072C09A811092D6028981811106C01092B3
:10028000D70226ED32E082E062C0853019F4909307
:10029000EA025AC0863009F03FC08B81813049F1B3
:1002A000823039F1833019F5911108C084E091E072
:1002B0009093E8028093E70284E02AC0913019F419
:1002C00082EF90E00EC0923041F48EED90E090937A
:1002D000E8028093E70284E11BC09330C1F48CEC08
:1002E00090E09093E8028093E70282E111C08132AE
:1002F00021F4CE010E94F50C0BC0823241F482E160
:1003000091E09093E8028093E7028CE301C080E0E3
:1003100090E4909384001FC0883079F0893019F4FC
:100320009093EC0211C08A3059F08B3069F483EC61
:100330008093D9028093040307C02CEE32E002C000
:1003400026ED32E081E003C026ED32E080E030931C
:10035000E8022093E7028F3F39F4988197FD8E8160
:1003600090E89093840007C09F81911104C09E8102
:10037000981708F4892F8093600010C08091840042
:1003800087FF0CC0CE010E94670D8F3F21F48EE1E4
:100390008093610003C08111109260001092E90205
:1003A0008091610084FF58C0809160008F3F09F404
:1003B00053C0C82F893008F0C8E08C1B80936000C0
:1003C0008091CD0298E889278093CD02CC2391F1CA
:1003D0008091840087FF09C06C2F8EEC92E00E9410
:1003E0002C0DC82F893090F525C04091E70250911F
:1003F000E80286FF0BC0AEECB2E0FA018C2F8A0F48
:1004000094919D9331968A13FBCF09C0DA01EEECEB
:10041000F2E08C2F8E0F9D9191938E13FCCF2FEFD6
:100420002C0F30E02F5F3F4F240F351F3093E80231
:100430002093E7026C2F8EEC92E00E946F02CC5F5B
:10044000CC3041F08FEF8093600004C08FEF809339
:100450006000CEE1C093610084E190B39C7031F400
:100460008150D9F71092EA021092E402DF91CF9105
:10047000089585B7826085BF8BB780648BBF83EC9E
:100480008093D902809304038AE58093D8028093F5
:1004900003030895A82FB92F8FEF9FEF1BC02D9155
:1004A0008227282F22952827722F269526952727E1
:1004B000239526952170782F892F82272195207CDE
:1004C000922F22277695279597278227769527952D
:1004D00097278227615018F7809590950895DADF65
:1004E0008D939D930895CF93CFB7CF93DF93C3950B
:1004F000839BE9F7839B0BC0839B09C0839B07C049
:10050000839B05C0839B03C0839B01C08EC06F93F8
:10051000C091E602DD27C351DD4F2F9365E5839B34
:1005200003C02F916F91E6CF0F931F934F9320E05D
:1005300040E15F9300B30C7003FB27F93F9350E059
:100540003BE039C01C7040642F77012F5F5F1EC0F5
:10055000406810B31C702F7752501FC0406400B326
:100560002F770C70D1F15F5F00C023C0406210B3E1
:100570002F771C7091F15F5F00C025C00C701027B1
:10058000515012F45D5F0000115027952C3F10B3BD
:10059000C8F61C700127015027952C3FC8F642274A
:1005A000499300B30C7010274F73115027952C3FBF
:1005B000A8F64695469510B31C7079F001270150B6
:1005C00027952C3F98F66B5A60F3315000B3B0F684
:1005D00000C010E41ABF00271CC03B503195C31B5C
:1005E000D04010E41ABF0881033C21F10B3411F113
:1005F0002091E4021981110F1213EDCF4A81441F9B
:10060000093669F10D3211F0013E29F74F7009F0FA
:10061000042F0093EB023F915F914F911F910F9137
:100620002F916F91CAB7C6FD62CFDF91CF91CFBF37
:10063000CF9118952091EB02222369F31091E902E2
:100640001123E9F53430EAF13093E9022093E50211
:100650001091E6023BE0311B3093E60232C000917C
:10066000E902013064F50AE54F7049F43091610008
:1006700034FD28C000936100CDECD2E027C04330A8
:1006800049F03091D80234FD1DC00093D802C9ED65
:10069000D2E01CC03091030334FD14C00093030367
:1006A000C4E0D3E013C0052710E000C0000002BB87
:1006B0001AC0052710E0221F1DC010E021C04AE526
:1006C00002C032ED432FC4E1D0E032E011B31C6030
:1006D000939A02B311BB5CE020E865E320FF052795
:1006E00002BB279517951C3FF0F66695B8F7B1F752
:1006F00020FF052702BB279517951C3FD0F62795AD
:10070000179517FF052700001C3F02BBB0F6299183
:100710003A9519F7037F1091EA02110FC651D040A4
:1007200002BB11F01093E40210E41ABF086011B389
:10073000137F402F437F54E05A95F1F702BB11BB62
:1007400042BB69CF0F931F93CF93DF93C82F162F10
:10075000809186008823E9F0D9B38C2F8470C2FD84
:1007600003C01ABA9FEF9BBB9C2F906895BB882350
:1007700011F08FEF8ABBC076C03609F444C01BBBB2
:1007800081E00E947E0B979A81E00E947E0B9798F1
:100790003AC0D998D89881E00E947E0B979A81E060
:1007A0000E947E0B979808E0D0E0DD0FCA99D160D7
:1007B00017FF02C0D89A01C0D898C7FF02C0D99AC3
:1007C00001C0D99881E00E947E0BCC0F979A110F3F
:1007D00081E00E947E0B9798015039F7D998D898FC
:1007E00081E00E947E0B979A81E00E947E0B979891
:1007F00081E00E947E0B979A81E00E947E0B979881
:1008000081E00E947E0B8D2FDF91CF911F910F9180
:10081000089580918600882359F0809185000E9478
:10082000C60B9F9910C0809113038111FACF0DC0A0
:10083000809185000E94C60BCA9905C08091130360
:100840008111FACF02C080E0089580E8089588EE13
:1008500093E0000001970097E1F7089580680895FC
:100860001092860094988C9A969A8E9A8D9AC29A33
:10087000AC98AD98AE98A498A598A698D898D09A18
:10088000D998D19A97988F9ADA98D29888E20E944C
:10089000870B85B58F7E85BD969AC29AD29A8AE0DB
:1008A0000E947E0B969884E6C2988150E9F7949A4C
:1008B00082E00E947E0BD298DA9A8BE40C947E0B35
:1008C0009498969AD898D098D998D19897988F98C4
:1008D000DA98D298C29A8D98C098C198089581E00C
:1008E000809386001ABA1BBAA7988C9A8E9A8D9A12
:1008F0009498969ABA9AA29AA39AA49AA19AA59A17
:10090000A69AA09A8F9AAF98C29AAB98AA98A898DC
:10091000AE98AD98AC98A998979885E00E94870BFF
:10092000C298AF9A87E00E947E0B9698AB9AAA9ADB
:10093000949A81E00C94870B9498969AAA98AB9815
:10094000A898AE98AD98AC98A998A298A398A098AA
:10095000A698A598A498A1981BBA1ABA81E00E94FB
:10096000870BC29A8D98C098C19881E00C94870B30
:100970009AE5909385008093860008958091860083
:10098000882321F080E090E00C946F0480E090E0F8
:100990000C94300480918600882321F080E090E060
:1009A0000C949C0480E090E00C946004CF93C82FDA
:1009B000C198C09A60E88CE40E94A20360E084E6DB
:1009C0000E94A20360E08CE60E94A2038091850051
:1009D000882321F00E940904C82F04C08C2F0E9494
:1009E000870BC0E060E08CE40E94A2038C2FCF91C3
:1009F0000895C198C09AFC012081209385008181CF
:100A00000C94D604C198C09AFC0181818093850022
:100A10008AE00C94D604AF92BF92CF92DF92EF920D
:100A2000FF920F931F93CF93DF93EC01B62EC198E3
:100A3000C09A8B8180938500CA80E98024968C2D92
:100A4000869581958770DD24DA94815010F0D694D4
:100A5000FCCFB11003C0D69460E101C061E18CE429
:100A60000E94A203F12C8C2D8170A82EA895609174
:100A70000F038CE00E94A203AA20B9F168818CE2E6
:100A80000E94A2038E01BB2049F00F5F1F4F60E060
:100A90008DE60E94A20360E08CE60CC00E5F1F4F43
:100AA00069818CE30E94A20360E08DE70E94A203AB
:100AB00060E08CE70E94A20380910F038F5F8D217D
:100AC00009F053C0C7FE51C0609110038CE10E9431
:100AD000A20360E084E60E94A20360E08CE60E942C
:100AE000A2030E940904F82E40C0609110038CE11B
:100AF0000E94A20368818CE20E94A20360E0BB20F6
:100B0000A1F08DE60E94A20360E084E60E94A203A9
:100B100060E08CE60E94A2030E940904F82E811175
:100B200033C08E010F5F1F4F1BC084E60E94A203DB
:100B300060E08CE60E94A2030E940904F82E811155
:100B400023C08E010E5F1F4F69818CE30E94A203B8
:100B500060E084E70E94A20360E08CE70E94A203A9
:100B60000E940904F82E81110FC00E94C909B1101A
:100B700005C0EA9419F4A11005C006C0EA94D9F39F
:100B8000E80174CFC6FE04C060E08CE40E94A203BA
:100B90008F2DDF91CF911F910F91FF90EF90DF90FC
:100BA000CF90BF90AF900895BF92CF92DF92EF9217
:100BB000FF920F931F93CF93DF93B42EC098C19AE7
:100BC000FC0120818181EB011992E82EF22E442351
:100BD00011F063E001C062E08CE40E94A20387018F
:100BE0000115110569F1A89560910F038CE00E9431
:100BF000A203609110038CE10E94A20360E088E6EA
:100C00000E94A20360E08CE60E94A2038883BB20BE
:100C100021F021960150110910C060E088E70E9480
:100C2000A2036E01F2E0CF0ED11C60E08CE70E94BF
:100C3000A203898302501109E6010E94C909D0CF9D
:100C40001882C7010296DF91CF911F910F91FF90FB
:100C5000EF90DF90CF90BF900895CF93DF93D82F80
:100C6000C42F8CE40E94A2036D2F8CE20E94A20389
:100C700060E08C2F84660E94A20360E08C2F8C665B
:100C80000E94A2030E94090460E08CE40E94A20377
:100C900080E0DF91CF910895FC01C198C09A8281D4
:100CA000809385008081882321F0813021F440E108
:100CB00003C040E001C042E060E481810C942D0655
:100CC000C198C09AFC0122812093850040E060E237
:100CD00081810C942D06FC01C198C09A8381809378
:100CE00085008081882331F0813031F0823031F409
:100CF00042E005C040E003C040E101C042E160E4E1
:100D000081810C942D06C198C09AFC012381209307
:100D1000850040E060E281810C942D06CF93C82FBE
:100D2000C098C19A64E08CE40E94A20360E08C2F1A
:100D300088660E94A20360E08C2F8C66CF910C9491
:100D4000A203C098C19AFC018081882329F08130D8
:100D500029F0823031F403C080E001C082E10C94BC
:100D60008E0680EC089580E10C948E06CF93DF937D
:100D7000D82FC62FC098C19A68E08CE40E94A203C5
:100D80006D2F8CE00E94A20360E08C2F88660E9489
:100D9000A20360E08C2F8C66DF91CF910C94A203AC
:100DA000C098C19A60E0FC0180810C94B606C0989E
:100DB000C19A60E180E00C94B60698B39F7398BB2B
:100DC000BC98C798C6980E94870B85B58F7E85BD55
:100DD000C49A0895DF92EF92FF920F931F93CF93DF
:100DE000DF93F62ED0908B0008B30F7BC82FD92F3E
:100DF00010E0F80EFC16A9F0199188E0E82E17FD16
:100E0000006408BB8D2D0E947E0BC79A110F0F7BCB
:100E1000B59911608D2D0E947E0BC798EA9479F7E1
:100E2000E9CF812FDF91CF911F910F91FF90EF902C
:100E3000DF900895CF930E94C60BC0EFC093870048
:100E40001092880064E087E890E00E94EA06982FFC
:100E5000917080FF05C0809113038111EFCF91E85D
:100E6000892FCF910895DF92EF92FF920F931F93F6
:100E7000CF93DF93EC01198120917A00B39902C0DE
:100E800081E10CC0223018F410928B001FC0223078
:100E900011F481E003C0233021F482E080938B00C1
:100EA00015C030E02F5F3F4FA90163E0559547958E
:100EB0006A95E1F7B90175956795641BF5E035957D
:100EC0002795FA95E1F7620F60938B0098B39F73B3
:100ED00098BBBF9ABE9A88EC0E94870BBC9A812F60
:100EE0000E94870B80918B000E947E0BC49A809198
:100EF0008B000E947E0BC4988A810E94870B91E22E
:100F0000F92E8E01095F1F4F24E0E22EFA9401F1C1
:100F1000A8956E81C8010E94EA06D82E2E81243041
:100F200048F46E2D621B822F90E007968C0F9D1F58
:100F30000E94EA068D81D81681F0C79A80918B00B5
:100F40000E947E0BC79880918B000E947E0BDECFA3
:100F500080E00E94DD0680EC01C080E0DF91CF914F
:100F60001F910F91FF90EF90DF900895CF93DF9343
:100F7000EC0188810E94DD0689810E94870BBF9861
:100F8000BE98BD98BC98C798C698C598C498C09894
:100F9000C198DF91CF9108951F93CF93DF93EC0118
:100FA0001881C198C09A64E002960E94EA0689817D
:100FB000882349F01A3008F41AE0812FDF91CF918D
:100FC0001F910C941A07812F0E94870B80E0DF91FC
:100FD000CF911F9108954F925F927F928F929F922F
:100FE000AF92BF92CF92DF92EF92FF920F931F9337
:100FF000CF93DF931F92CDB7DEB72C01962EC19809
:10100000C09AFC0180807180828180FF05C010E45D
:10101000A12E00E2B02E04C0A8E0AA2EB4E0BB2EA0
:10102000911014C08091120387FF10C08DE480934B
:10103000870010928800809111038093890010929C
:101040008A0064E087E890E00E94EA0600E010E091
:10105000E72CF82C0E151F0508F070C0A89580919C
:1010600010038093880080910F03809389006201B0
:10107000C00ED11EF601818580938A00F201848121
:10108000911004C0877F00FF05C0886089830E949B
:10109000C90989818093870064E087E890E00E9415
:1010A000EA06F201828180FF11C0F1E0EF1AF10837
:1010B0000E151F05E8F087FF1BC0F20185818093A4
:1010C000870064E087E890E00E94EA06F2018281EE
:1010D0009B2D982339F1F601F184F2018781F816EE
:1010E00019F08085F81206C0F20183810E94870BF7
:1010F00080E01EC0F2018681877F00FD88608093BA
:101100008700F20183810E94C60B64E087E890E0CB
:101110000E94EA068F1561F3809113038111F5CFC8
:1011200080E806C08A2101F3F20183810E941A0738
:101130000F5F1F4F882309F48BCF01C080E00F9011
:10114000DF91CF911F910F91FF90EF90DF90CF90A3
:10115000BF90AF909F908F907F905F904F90089539
:10116000AF92BF92CF92DF92EF92FF920F931F93B5
:10117000CF93DF931F92CDB7DEB78C01F62EE42E0E
:10118000C098C19A10928A00411114C08091120334
:1011900087FF10C08DE480938700109288008091B3
:1011A00011038093890064E087E890E079830E94CE
:1011B000EA067981F801D080C180AF2CB72EF50105
:1011C00011925F01F801F280850198012A193B090B
:1011D000C6012C153D0510F5A8958091100380934C
:1011E000880080910F0380938900E1100AC020FFDE
:1011F00004C0FF2DF860FF2E04C08F2D877FF82ECE
:1012000002C00E94C909F092870064E087E890E07C
:101210000E94EA06F80181938F01D7CFF80110826E
:1012200002960F90DF91CF911F910F91FF90EF9059
:10123000DF90CF90BF90AF900895C198C09A64E0BE
:101240000E94EA0680E008951F93CF93DF93EC019C
:10125000C098C19A688101960E94EA06182F2881D9
:10126000243048F464E0621B822F90E001968C0FDA
:101270009D1F0E94EA06812FDF91CF911F91089553
:10128000BF92CF92DF92EF92FF920F931F93CF9373
:10129000DF93EC016B01C098C19A88810A818017A5
:1012A00008F4082F602FCE0103960E94EA0676010B
:1012B0008FEFE81AF80AB12C10E08B2D90E028810E
:1012C00030E0201B310B821793079CF4800F911F95
:1012D000039661E08C0F9D1F0E94EA069981B91662
:1012E00028F4F7018083C70101967C01A895B39487
:1012F000E4CF8701BE1889819B2D900F981760F469
:101300001092870061E087E890E00E94EA06F80109
:1013100081938F01A895EFCFF6011082F80110821A
:10132000898190E00296DF91CF911F910F91FF90FC
:10133000EF90DF90CF90BF9008952BE12093900025
:101340002091AF012093910090939200809393009D
:101350002EE02093940010928F0010928E009C013A
:101360002B5F3F4FAC014A5F5F4F50938D0040931E
:101370008C00E0E9F0E040E001978A3F5FEF9507DD
:1013800019F051914527F8CFF901E057FF4F4083FD
:10139000089580910F0390911003A0911103B091D3
:1013A00012030196A11DB11D80930F0390931003AA
:1013B000A0931103B09312030895CF93DF93C2E07B
:1013C000D0E04091B301409395001092960050E018
:1013D000FA013197EC33F10508F0D4C0E65DFF4F18
:1013E0000C94E00D8091B401809312038091B501BB
:1013F000809311038091B601809310038091B7010F
:1014000080930F03C2C068E071E087E990E00E941A
:10141000E60DCBE0BAC08091B501E091B401E639A8
:1014200039F425B5982F9770287F922B95BD03C06E
:10143000E73909F483BDEF71F0E0EE59FF4F808387
:10144000A4C0E091B401E63919F485B5877022C0D3
:10145000E73911F483B51EC0EF71F0E0EE59FF4F8C
:10146000808118C084EB91E00E9430048EC084EB30
:1014700091E00E94600489C084EB91E00E94F9042D
:1014800082C084EB91E00E944C067DC084EB91E029
:101490000E94A10680939700C3E077C084EB91E09F
:1014A0000E94600670C084EB91E00E946F046DC0E2
:1014B00084EB91E00E949C0468C084EB91E00E9460
:1014C000020561C060E003C040E007C061E084EB5A
:1014D00091E00E940B0557C041E066E970E084EBA3
:1014E00091E00E94D4054BC084EB91E00E946B0612
:1014F0004AC084EB91E00E94830645C00E94B30677
:10150000C9CF84EB91E00E94D006C4CF0E94D706D9
:10151000C1CF84EB91E00E94330735C084EB91E0AA
:101520000E94B60732C084EB91E00E94CC072BC02A
:1015300060E003C040E007C061E084EB91E00E94FE
:10154000EB0721C041E066E970E084EB91E00E9486
:10155000B00815C084EB91E00E94240980939700A5
:1015600010929800C4E011C084EB91E00E941D0924
:101570000AC066E970E084EB91E00E9440090196A0
:10158000EC0103C080EC80939600CE01DF91CF91F7
:101590000C949D0990911403911104C01092AD0117
:1015A0001092AC014091AC015091AD014115510533
:1015B00061F48B3109F064C021E030E03093AD017B
:1015C0002093AC018093AE015BC0493121E052070A
:1015D00008F052C09A012F5F3F4F3093AD01209326
:1015E000AC01FA01E255FE4F808324303105A9F4A5
:1015F0008091B1018093AA018091B0018093AB01E9
:101600008091AA019091AB0106969093AB018093D3
:10161000AA018A319140A0F12FC02530310519F47B
:101620008E3051F52DC02530310550F18091AA0141
:101630009091AB012817390719F5EEEAF1E0225530
:101640003E4F80E0E217F30719F091918927FACF16
:101650001092AD011092AC01811104C081E0809321
:10166000A9010EC080EB809395008093960082E0E4
:1016700090E00E949D0904C01092AD011092AC014F
:1016800088EC80931403089580918C0090918D00D4
:1016900020918E0030918F00821B930B0895209132
:1016A0008C0030918D0021153105E1F080918E0084
:1016B00090918F00AC014F5F5F4F50938F0040932C
:1016C0008E00FC01E057FF4F80814217530740F026
:1016D00010928D0010928C0010928F0010928E004C
:1016E00090E008958FEF9FEF08958091A9018823DE
:1016F00021F01092A9010C94DD09089591E090BFAA
:1017000092B7980F82B7891B87FDFCCF08950F937E
:101710001F93CF93DF9398E0899F80011124C0E04D
:10172000D0E0C017D10729F08FE10E947E0B2196EF
:10173000F8CFDF91CF911F910F9108951F920F92D3
:101740000FB60F9211248F9380911303882329F0F1
:101750008091130381508093130380918200815004
:101760008093820081110CC082E680938200809178
:101770001403882329F0809114038150809314036B
:101780008F910F900FBE0F901F9018958F5F8093D1
:10179000130308950895FC0191818081982382812B
:1017A000982381E09F3F09F080E00895EF92FF9237
:1017B0000F931F93CF93DF937C018B010E94CB0B80
:1017C000882319F0C098C1983AC0C09AC0E0D0E010
:1017D0004BE050E0BE018CE193E00E94FA0D8CE1F9
:1017E00093E00E94CB0B81112AC043E050E06CE1F2
:1017F00073E0C7010E94ED0D892B31F02B9683E039
:10180000CF3FD80729F71BC0C19A80912103F80167
:101810009281892790912503892390911F0320812C
:101820009227209123039223892B909122032381D5
:101830009227209126039223892B09F4C098DF91E7
:10184000CF911F910F91FF90EF900895EF92FF922B
:101850001F93CF93DF9300D0CDB7DEB789839A83F0
:101860000E94BE048981E82E9A81F92E10E060E082
:10187000812F0E94B606F70181937F011F5F13300D
:10188000B1F70F900F90DF91CF911F91FF90EF90E4
:101890000C94CA04CF93DF93EC010E94BE0482E152
:1018A0000E948E06898380E00E948E06888382E0F3
:1018B0000E948E068A8380E10E948E068B83DF91D0
:1018C000CF910C94CA04CF93DF93EC010E94BE0425
:1018D00040E060E488810E942D0640E160E4898157
:1018E0000E942D0642E060E48A810E942D0640E0BD
:1018F00060E28B810E942D06DF91CF910C94CA0487
:1019000080E00E94B80489E193E00E94260C809157
:1019100019038E3151F485E193E00E944A0C65E190
:1019200073E089E193E00C94D60B81E00E94B80447
:1019300089E193E00E94260C809119038E3159F3BE
:10194000089581E00E94B80489E193E00E94260C8A
:10195000809119038E3151F485E193E00E944A0C85
:1019600065E173E089E193E00C94D60B08950E9441
:10197000800CB09B18C0B19B16C08091220390913F
:101980001803892790912603892339F00E94BE0409
:1019900080E50E94D6040E94CA048FE193E00E9471
:1019A000630C0C94800C08958091C7029091C8023A
:1019B000009711F0019714C08091C902811108C0ED
:1019C000B39912C00E94B70C81E08093C90206C08F
:1019D000B39B0AC0C098C1981092C90280E197E2F7
:1019E0009093C8028093C70208952091CA022223CF
:1019F00051F0FC018381813051F0823061F482E248
:101A00002EE431E00BC080E020E030E007C082E14E
:101A100020E731E003C089E020E631E03093E802BE
:101A20002093E7020895FC0180818076803291F452
:101A30008091CA02882371F08181877F813051F4BF
:101A400092819093CC02953009F483E08093CB028D
:101A50008FEF089580E00895FF920F931F93CF9327
:101A6000DF93EC01F62E8091CB029FEF980F92301E
:101A700038F5813079F48091CC0288830E94440B40
:101A800091118FEF898322968EEF8F0D92E09093C4
:101A9000CB0201C0862F9091CC02992349F00C2FE4
:101AA0001D2FC80F0E944F0B97FF04C01092CC024D
:101AB0008F2D07C0F80181938F01CE13F3CFF8CF9C
:101AC00080E0DF91CF911F910F91FF9008950F93C8
:101AD0001F93CF93DF932091CB023FEF320F323031
:101AE00010F511E0683009F410E0213049F4FC01F0
:101AF00021812093CC020296625022E02093CB02F7
:101B0000C82FD92F062F080F8091CC02882369F0A7
:101B100089910E94CA0A9091CC0291509093CC0274
:101B20000C13F2CF02C081E001C0812FDF91CF9171
:101B30001F910F910895089580E884BF84BF2EE01F
:101B400088E190E00FB6F894A89581BD0FBE21BD45
:101B500081E08093CA021BBA1ABA1BBA1ABA8CE087
:101B600088BB87E087BB15BA8FE784BB12BA80EDCC
:101B700081BB8B9A80E0815041F0A895EFE9FFE0AE
:101B80003197F1F700C00000F6CF8B9883E083BF58
:101B900082E88FBD29E02EBD80EA90E09BBD8ABD22
:101BA00025BD82E083BD0E94CA0B0E943902789451
:101BB000A8950E94D40C0E940D010E94750BF8CFCD
:101BC000EE0FFF1F0590F491E02D0994FB01DC015D
:101BD00005900D920020E1F70895FB01DC0104C09F
:101BE0008D910190801921F441505040C8F7881B15
:101BF000990B0895DC01CB01FC01E199FECF06C0F1
:101C0000FFBBEEBBE09A31960DB20D9241505040B1
:081C1000B8F70895F894FFCF26
:101C1800FF5A000000000000000000000000000063
:101C2800000001020400320001800200AA00000046
:041C380000000100A7
:00000001FF
