:1078000052C0000085C0000069C0000067C00000D1
:1078100065C0000063C0000061C000005FC00000E0
:107820005DC000005BC0000059C0000057C00000F0
:1078300055C0000053C0000051C000004FC0000000
:107840004DC000004BC0000049C0000047C0000010
:1078500045C00000040309041C037700770077008B
:107860002E00660069007300630068006C002E0043
:10787000640065000E035500530042006100730070
:10788000700012011001FF000008C016DC050201A3
:107890000102000109021200010100803209040006
:1078A00000000000000011241FBECFE5D8E0DEBFBD
:1078B000CDBF10E0A0E6B0E0E0EEFFE702C005902B
:1078C0000D92A636B107D9F710E0A6E6B0E001C0E8
:1078D0001D92AD39B107E1F73BD180C391CFA82FFD
:1078E000B92F80E090E041E050EA609530E009C0B7
:1078F0002D9182279795879510F084279527305EE4
:10790000C8F36F5FA8F30895EADF8D939D93089500
:10791000CF93CFB7CF93DF93C395849BE9F7849B35
:107920000BC0849B09C0849B07C0849B05C0849BBB
:1079300003C0849B01C089C06F93C0918000DD2784
:10794000C957DF4F2F9365E5849B03C02F916F913B
:10795000E6CF0F931F934F9320E040E15F9300B376
:10796000047104FB27F93F9350E03BE039C01471E8
:1079700040642F77012F5F5F1EC0406810B3147101
:107980002F7752501FC0406400B32F770471D1F19C
:107990005F5F00C023C0406210B32F77147191F174
:1079A0005F5F00C025C004711027515012F45D5F65
:1079B0000000115027952C3F10B3C8F61471012711
:1079C000015027952C3FC8F64227499300B3047114
:1079D00010274F73115027952C3FA8F646954695D2
:1079E00010B3147179F00127015027952C3F98F6B8
:1079F0006B5A60F3315000B3B0F600C010E41ABF08
:107A0000002717C03B503195C31BD04010E41ABF6C
:107A10000881033CF9F00B34E9F020917E001981D4
:107A2000110F1213EDCF093651F10D3211F0013E55
:107A300039F7009385003F915F914F911F910F910E
:107A40002F916F91CAB7C6FD67CFDF91CF91CFBF9E
:107A5000CF91189520918500222369F3109183001E
:107A6000112339F534303AF13093830020937F00AD
:107A7000109180003BE0311B309380001CC00091CE
:107A800083000130B4F40AE53091600034FD14C085
:107A900000936000C3E7D0E013C0052710E000C0EA
:107AA000000002BB1AC0052710E0221F1DC010E015
:107AB00021C04AE502C032ED432FC4E1D0E032E0FC
:107AC00011B31461949A02B311BB54E120E865E349
:107AD00020FF052702BB279517951C3FF0F66695FA
:107AE000B8F7B1F720FF052702BB279517951C3F74
:107AF000D0F62795179517FF052700001C3F02BBFE
:107B0000B0F629913A9519F70B7E10918400110F68
:107B1000C651D04002BB11F010937E0010E41ABF92
:107B2000006111B31B7E402F4B7E54E05A95F1F754
:107B300002BB11BB42BB7FCF12BAF8941BBE15BE6D
:107B400081E08BBF1BBEE0917100F091720009953E
:107B5000DF93CF930F92CDB7DEB788E10FB6F894DD
:107B600081BD11BC0FBE979A04B601FE21C214BE9E
:107B700081E08BBF82E08BBF87991AC285B7826094
:107B800085BF8BB780648BBF8C9A80E007C0A895B7
:107B9000AFE9BFE01197F1F700C000008150B9F7DD
:107BA0008C987894EE24FF2480918300835087FD85
:107BB00062C1909180002CE0A22EB12CA91AB108CC
:107BC000E7E8F0E0AE0EBF1E90917F009D3209F015
:107BD000CCC0883009F04DC183EC809373008AE5F6
:107BE0008093600010926700D5014C91842F8076BD
:107BF00011963C911197882309F441C08DE690E0DD
:107C00009093820080938100333099F412968C9186
:107C10001297803349F41496EC911497E370F0E0D6
:107C2000EE59FF4F808101C080E08093700024E016
:107C30008DC0353001F1832F84508630B0F4F501CA
:107C40008281938190936900809368003930A9F014
:107C5000268120936A008581827080936B00309327
:107C60006C0047FD6FC02FEF6DC0323031F481E002
:107C70008093660002C021E069C020E067C0D501A2
:107C800012968C91129710927C00332331F410924B
:107C90007D008CE790E022E050C0353019F48093ED
:107CA000840041C03630B1F5F5019381913019F46B
:107CB00082E898E704C0923041F484E998E7909311
:107CC00082008093810022E121C09330F1F4882367
:107CD00041F484E598E7909382008093810024E04A
:107CE00015C0813041F488E598E790938200809335
:107CF00081002CE10BC0823041F484E798E7909337
:107D00008200809381002EE001C020E080E4809317
:107D100067001CC0383059F0393019F48093860060
:107D200002C03A3039F08CE790E020E006C086E8E7
:107D300090E002C08CE790E021E090938200809375
:107D4000810004C080E8809367000CC0D5011796BD
:107D50008C911797882331F416968C911697821779
:107D600008F4282F2093610084C09091670097FF4A
:107D700080C090916A00D82E981708F4D92E9D19CA
:107D800090936A0021E0911120E080916C0087308F
:107D900010F430E067C0850111C0809168009091B7
:107DA0006900AC014F5F5F4F5093690040936800DA
:107DB000F80161918F01298304D12981802F8A19CB
:107DC0008D1558F352C080916800909169008F77AB
:107DD0009070009769F4F894E0916800F091690060
:107DE00083E080935700E895789407B600FCFDCFB8
:107DF0003E5FF894E0916800F0916900D5018D91A3
:107E00009D915D0141E00C0140935700E8951124DC
:107E1000789480916800909169000296909369002F
:107E2000809368008F779070009741F02223D1F003
:107E30003D15C0F080916B008823A1F0F894E0918B
:107E40006800F0916900329785E080935700E895CB
:107E5000789407B600FCFDCFF89481E18093570039
:107E6000E89578943D1508F4AECF222311F01092D6
:107E70006100109283008091600084FF85C0809132
:107E800061008F3F09F480C0D82E893010F098E04F
:107E9000D92E8D19809361008091730098E889270D
:107EA00080937300DD2009F45DC09091670097FF17
:107EB00031C080916A008D1508F4D82E8D198093F9
:107EC0006A000D2D10E00C581F4F84E7A82E80E0AB
:107ED000B82E1CC020916C008091680090916900C0
:107EE000273020F066D0F501808304C0FC01849126
:107EF000D5018C930894A11CB11C809168009091CD
:107F0000690001969093690080936800A016B106FD
:107F100009F725C0E0918100F09182008D2D8150FC
:107F200096FF0CC090E08B589F4FA4E7B0E02491DF
:107F30002D933196A817B907D1F70DC0AF0190E086
:107F40008B589F4FA4E7B0E0FA012191AF012D9328
:107F5000A817B907C9F7F0938200E0938100FD2DBF
:107F6000F93060F484E790E06D2DCEDC8D2D8C5FD0
:107F70008C3041F09FEF9093610004C08FEF8093AD
:107F800061008EE18093600084E190B3947131F4DC
:107F90008150D9F71092840010927E008091660083
:107FA000882321F0FA9411F4EA9411F0879BFCCD18
:107FB000C3DDE199FECF9FBB8EBBE09A99278DB3BD
:107FC0000895262FE199FECF9FBB8EBB2DBB0FB628
:107FD000F894E29AE19A0FBE01960895F894FFCFC3
:067FE0005AFF1E9502008D
:040000030000780081
:00000001FF
